:100311005772697465204F4B210020202020202036
:100321002020200052656164204F4B2100202020B5
:0603310020202020200026
:10000300120402750C05AB23AA227D017F011203A2
:10001300BA1201768F24E524B401150523E5237074
:10002300020522750C05FBAA227D017F011203BA8A
:10003300E524B40216E523152370021522750C0579
:10004300AB23AA227D017F011203BAE52464037066
:1000530040FCAD23FF1203377F057E001203EDE55D
:1000630022FD7C007F011203377F057E001203ED22
:100073007BFF7A0379117D017F0212035B7FE87EA8
:10008300031203ED7BFF7A03791B7D017F021203C9
:100093005BE52464046003020014FF1202B57522B9
:1000A300008F237F011202B5EFFEEE4222750C058D
:1000B300AB23AA227D017F011203BA7BFF7A037966
:1000C300257D017F0212035B7FE87E031203ED7B34
:0F00D300FF7A03792E7D017F0212035B02001476
:1003ED00EF1FAC0670011E4C600A7D027CEFDCFE37
:0403FD00DDFC80ECB7
:0104010022D8
:06041600C2A58F80D2A7F1
:08041C007F027EEFDEFEDFFC33
:0104240022B5
:0A043D00C2A6120416C2A702041C96
:10037E00CFCDCFCECCCE1201217C007D0A12012131
:04038E00ED2430FF2B
:0A039200D2A6120416C2A702041C32
:1003D700AE07BE0104ED148006BE0209ED243F44BA
:0603E70080FF12043D221C
:100402007F3812043D7F0C12043D7F0612043D7FAB
:040412000102043DA2
:0A044700AC031203D7AF04020392C6
:06035B008B088A09890AE3
:100361001203D7E4FDAB08AA09A90A8D827583009F
:0C0371001200E2FF60061203920D80E90A
:01037D00225D
:0C0282007F0AEA24FFFDE434FFFC7E004C
:08028E008E0D8F0E8C0F8D10F8
:100296007F017E00E4FBEBC39510E50F6480F874E4
:0E02A6008098500AAC0DAD0E12010F0B80E8CF
:0102B4002227
:0403BA008A0A8B0B15
:1003BE001203D7AA0CEAD39400400D120282AC0AA3
:0803CE00AD0B12037E1A80ED55
:0103D6002204
:1001D7001203D7C3EA64809480400B7F2B120392EB
:1001E7008A168B17800E7F2D120392C3E49BF51797
:1001F700E49AF516AA15EAD39400400D120282ACD0
:0902070016AD1712037E1A80EDFA
:0102100022CB
:040211008A1A8B1B9F
:100215001203D7AA1CEAD3940040297F1012028446
:10022500AC1AAD1BCFCDCFCECCCE120121EF540FE2
:10023500FEC3940AEE5004243080022437FF1203D3
:04024500921A80D1B8
:010249002292
:04024A008A1F8B205C
:10024E001203D7AA21EAD394004028EA24FFFDE442
:10025E0034FFFC7F027E0012028EAC1FAD20CFCD8C
:10026E00CFCECCCE120121EF54012430FF120392D7
:03027E001A80D211
:01028100225A
:10017600E4F50820B1137F14FE1203ED30B1FD7FC4
:10018600147E001203ED75080120B0147F147E0062
:100196001203ED30B0FD7F147E001203ED750802E8
:1001A60020B2147F147E001203ED30B2FD7F147E60
:1001B600001203ED75080320B3147F147E001203AA
:1001C600ED30B3FD7F147E001203ED750804AF0811
:0101D6002206
:09045B00D2A0D2A1C2A0C2A122CC
:07046400C2A0D2A1D2A02228
:0202E800AD0760
:1002EA00E4FB74807E00A803088006CEA2E713CE42
:1002FA0013D8F8FFEDF582EF558224FF92A0D2A120
:06030A00C2A10BBB08DCE0
:0103100022CA
:10039C00E4FFD2A0FED2A130A00D7480A806088084
:0D03AC0002C313D8FC4207C2A10EBE08E830
:0103B9002221
:0A045100EF24FF92A0D2A1C2A12265
:0B042500D2A0D2A1A2A0E433FFC2A12C
:0104300022A9
:100337008F088C098D0A12045B7FA01202E8120451
:1003470025AF081202E8120425AF0A1202E81204C8
:040357002502046413
:0202B5008F08B0
:1002B700E4F50912045B7FA01202E8120425AF08D7
:1002C7001202E812042512045B7FA11202E812044D
:1002D7002512039C8F097F01120451120464AF0990
:0102E70022F4
:03000000020431C6
:0C043100787FE4F6D8FD758124020003FA
:1000E200BB010CE58229F582E5833AF583E02250D3
:1000F20006E92582F8E622BBFE06E92582F8E2221D
:0D010200E58229F582E5833AF583E4932236
:10010F00EF8DF0A4A8F0CF8CF0A428CE8DF0A42E04
:02011F00FE22BE
:10012100BC000BBE0029EF8DF084FFADF022E4CCC2
:10013100F875F008EF2FFFEE33FEEC33FCEE9DEC8B
:10014100984005FCEE9DFE0FD5F0E9E4CEFD22EDD1
:10015100F8F5F0EE8420D21CFEADF075F008EF2F1B
:10016100FFED33FD4007985006D5F0F222C398FD0C
:050171000FD5F0EA22A9
:00000001FF
