:06053E00C2A58F80D2A7C8
:080544007F027EEFDEFEDFFC0A
:01054C00228C
:0A054D00C2A612053EC2A702054433
:1004C700CFCDCFCECCCE12012C7C007D0A12012CD1
:0404D700ED2430FFE1
:0A04DB00D2A612053EC2A702054496
:10050200AE07BE0104ED148006BE0209ED243F448D
:0605120080FF12054D22DE
:100518007F3812054D7F0C12054D7F0612054D7F61
:040528000102054D7A
:0A055700AC03120502AF040204DB3E
:0604A4008B088A09890A99
:1004AA00120502E4FDAB08AA09A90A8D8275830028
:0C04BA001200EDFF60061204DB0D80E96B
:0104C6002213
:0C0471007F0AEA24FFFDE434FFFC7E005B
:08047D008E0D8F0E8C0F8D1007
:100485007F017E00E4FBEBC39510E50F6480F874F3
:0E0495008098500AAC0DAD0E12011A0B80E8D3
:0104A3002236
:0404E5008A0A8B0BE9
:1004E900120502AA0CEAD39400400D120471AC0A59
:0804F900AD0B1204C71A80EDDF
:0105010022D7
:1003C600120502C3EA64809480400B7F2B1204DB83
:1003D6008A168B17800E7F2D1204DBC3E49BF5175C
:1003E600E49AF516AA15EAD39400400D120471ACEE
:0903F60016AD171204C71A80EDC0
:0103FF0022DB
:040400008A218B22A0
:10040400120502AA23EAD3940040297F1012047330
:10041400AC21AD22CFCDCFCECCCE12012CEF540FD8
:10042400FEC3940AEE5004243080022437FF1204E1
:04043400DB1A80D17E
:0104380022A1
:040439008A268B275D
:10043D00120502AA28EAD394004028EA24FFFDE41D
:10044D0034FFFC7F027E0012047DAC26AD27CFCD9C
:10045D00CFCECCCE12012CEF54012430FF1204DB91
:03046D001A80D220
:010470002269
:10052C0020202D20202D20200020203A20203A2091
:02053C0020009D
:10029A0012051812056B7BFF7A05792C7D017F0107
:1002AA001204A47BFF7A0579357D017F021204A42A
:1002BA00120003120181E518FB7A00750C027D0118
:1002CA007F011204E5E519FB7A00750C027D047FB3
:1002DA00011204E5E51AFB7A00750C027D077F011D
:1002EA001204E5E51BFB7A00750C027D017F021200
:1002FA0004E5E51CFB7A00750C027D047F021204FA
:10030A00E5E51DFB7A00750C027D077F021204E504
:02031A0080A1C0
:0905610007181A090D121B3007DE
:05056B00C2B6C2B5227A
:06031C0025F0FDEC3EFCA3
:060322008C088D09AB07F9
:10032800D2B5E4FD74017E00A805088005C333CE6C
:1003380033CED8F9FFEBF582EF558224FF92B4D281
:10034800B6C2B60DBD08DDE4FD74017E00A805083F
:100358008005C333CE33CED8F9FFE5085EFEE50944
:100368005F4E24FF92B4D2B6C2B60DBD08DBC2B54B
:010378002262
:02037900AD07CE
:10037B00E4F9430501D2B5FB74017E00A8030880A4
:10038B0005C333CE33CED8F9FFEDF582EF5582247A
:10039B00FF92B4C2B6D2B60BBB08DDE4FBD2B6C239
:1003AB00B630B40CE4A803088002C333D8FC420176
:0A03BB000BBB08E9C2B5C2B4AF01E4
:0103C5002215
:10000300E4FDFC7F8E120322E51875F00A8475F077
:1000130010A4FFAEF0E51875F00A84EF7F8C12038D
:100023001CE51975F00A8475F010A4FFAEF0E5190C
:1000330075F00A847C00EF7F8812031CE51A75F0C3
:100043000A8475F010A4FFAEF0E51A75F00A847CFB
:1000530000EF25F0FDEC3EFC7F86120322E51B75C5
:10006300F00A8475F010A4FFAEF0E51B75F00A8466
:100073007C00EF25F0FDEC3EFC7F84120322E51C9F
:1000830075F00A8475F010A4FFAEF0E51C75F00A54
:10009300847C00EF25F0FDEC3EFC7F82120322E519
:1000A3001D75F00A8475F010A4FFAEF0E51D75F020
:1000B3000A847C00EF25F0FDEC3EFC7F80120322D6
:1000C300E51E75F00A8475F010A4FFAEF0E51E7509
:1000D300F00A847C00EF25F0FDEC3EFC7F8A1203DE
:0A00E300227D807C007F8E02032244
:100181007F8C120379EFC4540F75F00AA4FEEF546B
:100191000F2EF5187F88120379EFC4540F75F00AFA
:1001A100A4FEEF540F2EF5197F86120379EFC45484
:1001B1000F75F00AA4FEEF540F2EF51A7F84120377
:1001C10079EFC4540F75F00AA4FEEF540F2EF51BFE
:1001D1007F82120379EFC4540F75F00AA4FEEF5425
:1001E1000F2EF51C7F80120379EFC4540F75F00AAE
:1001F100A4FEEF540F2EF51D7F8A120379EFC4542C
:0C0201000F75F00AA4FEEF540F2EF51E3E
:01020D0022CE
:0300000002020EEB
:0C020E00787FE4F6D8FD75812A020255C5
:1000ED00BB010CE58229F582E5833AF583E02250C8
:1000FD0006E92582F8E622BBFE06E92582F8E22212
:0D010D00E58229F582E5833AF583E493222B
:10011A00EF8DF0A4A8F0CF8CF0A428CE8DF0A42EF9
:02012A00FE22B3
:10012C00BC000BBE0029EF8DF084FFADF022E4CCB7
:10013C00F875F008EF2FFFEE33FEEC33FCEE9DEC80
:10014C00984005FCEE9DFE0FD5F0E9E4CEFD22EDC6
:10015C00F8F5F0EE8420D21CFEADF075F008EF2F10
:10016C00FFED33FD4007985006D5F0F222C398FD01
:05017C000FD5F0EA229E
:10021A0002029AE493A3F8E493A34003F68001F25E
:10022A0008DFF48029E493A3F85407240CC8C333E5
:10023A00C4540F4420C8834004F456800146F6DFB4
:10024A00E4800B0102040810204080900561E47EDE
:10025A00019360BCA3FF543F30E509541FFEE493A9
:10026A00A360010ECF54C025E060A840B8E493A370
:10027A00FAE493A3F8E493A3C8C582C8CAC583CA9B
:10028A00F0A3C8C582C8CAC583CADFE9DEE780BE53
:01056A000090
:00000001FF
