:10026100EF1FAC0670011E4C600A7D027CEFDCFEC4
:04027100DDFC80EC44
:010275002266
:10024A005389F0438901758A18758CFCC28DD28C4A
:07025A00D2A9D2AFC2B92204
:10000E00000400040004160218021906180219044E
:10001E001D04180C110211021606140216041904FE
:10002E00140C110412061102120419041108000214
:10003E0019021902190218061302120418041808DC
:10004E000004160218021906180219041D04180CD1
:10005E00110211021606140216041904140C0F02D2
:10006E0011021204190218021802190219041B02B5
:10007E001B021D0219021908190218021602160295
:10008E0018041504160C19021B021D061B021D0472
:10009E0020041B0C140214021906180219041D0464
:1000AE001D1016021802190418041B021B02190651
:1000BE00140214081E041D041B0419041D0C1D0437
:1000CE002208200420041D021B0219080002190236
:1000DE001B0419021B021B0420041D0C1D04220804
:1000EE0020081D021B021908000219021B04190226
:0D00FE001B021B041804220C16021802FF3E
:10019700204A0A0000F88CF8F3F95BF9B8FA15FA67
:1001A70067FAB9FB04FB4BFB90FBCFFC10FC44FC4C
:1001B70079FCACFCDCFD09FD34FD5CFD82FDA6FD90
:1001C700C8FDE8FE06FE22FE3DFE56FE6EFE85FEDB
:0D01D7009AFEAEFEC1FED3FEE4FEF4FF036F
:1002190012024AE50890000E93FFF460208F090549
:1002290008E5089375F07DA4FFAEF0120261050898
:10023900C28C7F057E00120261D28C80D6C28C806E
:01024900FEB6
:03000B000201E50A
:1001E500C0E0C0D075D000C000C006E50925E024F8
:1001F5000AF8E6FE08E64E6012E50925E0240AF84D
:10020500E6FE08E6F58AEEF58CB2A5D006D000D05C
:04021500D0D0E03233
:0300000002010BEF
:0C010B00787FE4F6D8FD758153020152A4
:10011700020219E493A3F8E493A34003F68001F2E3
:1001270008DFF48029E493A3F85407240CC8C333E9
:10013700C4540F4420C8834004F456800146F6DFB8
:10014700E4800B0102040810204080900197E47EB0
:10015700019360BCA3FF543F30E509541FFEE493AD
:10016700A360010ECF54C025E060A840B8E493A374
:10017700FAE493A3F8E493A3C8C582C8CAC583CA9F
:10018700F0A3C8C582C8CAC583CADFE9DEE780BE57
:0101E400001A
:00000001FF
