:1009C400543A00544C3A0054483A004F563A4800BE
:0A09D4004F563A4C0020202020006E
:080AC00002080000020E000014
:10045600120A547BFF7A0979C47D017F0112092BA8
:100466007BFF7A0979C77D017F0212092B7BFF7A10
:100476000979CB7D097F0212092B120A89E4FF1242
:10048600087F7508008F097F0112087F750E008F9F
:100496000FC3E50994C9E5086480947F401ED3E53F
:1004A6000F947DE50E648094805011C3E509950F85
:1004B600E50E6480F8E508648098400C75080075C0
:1004C6000914750E00750F197F587E02120A3F75C2
:1004D6001903AB09AA087D047F021207A175190347
:1004E600AB0FAA0E7D0C7F021207A11207408F10D8
:1004F600120A891208B28F0D8E0C8D0B8C0AE4FF3E
:10050600FEFDFCAB0DAA0CA90BA80A1201A9501EF0
:100516007B2D7D037F01120AACAF0DAE0CAD0BAC8B
:100526000A1202168F148E138D128C1180157B2BD6
:100536007D037F01120AAC850D14850C13850B1201
:10054600850A11AF14AE13AD12AC11120265AB07DA
:10055600AA067519037D047F0112098A7B2E7D0781
:100566007F01120AACE4FFFE7DC87C42AB14AA13DD
:10057600A912A811120003120265E47B64FAF9F8C5
:100586001203B67519027D087F0112098AE51070FB
:1005960003020660B4011DE509150970021508C3BA
:1005A600E50994C9E5086480947F50080509E509C2
:1005B60070020508E510B4021F0509E50970020579
:1005C60008D3950FE50E6480F8E508648098400826
:1005D600E509150970021508E510B40321E50F15A4
:1005E6000F7002150EC3E50F9509E5086480F8E55E
:1005F6000E6480985008050FE50F7002050EE51091
:10060600B4041B050FE50F7002050ED3947DE50EAD
:10061600648094804008E50F150F7002150E751959
:1006260003AB09AA087D047F021207A1751903AB63
:100636000FAA0E7D0C7F021207A1AD09AC08E4FFDC
:100646001209077F057E00120A3FAD0FAC0E7F012F
:100656001209077F057E00120A3FAC0EAD0FEC12A1
:10066600022CAB0DAA0CA90BA80A1201A9600A401C
:10067600087BFF7A0979CF801BAC08AD09EC120222
:100686002CAB0DAA0CA90BA80A1201A950107BFFCE
:100696007A0979D47D0D7F0112092B0204F17BFFC3
:0E06A6007A0979D97D0D7F0112092B0204F12A
:100A3F00EF1FAC0670011E4C600A7D027CEFDCFEDE
:040A4F00DDFC80EC5E
:010A53002280
:0D0A89001209DE7FCC1209F87F440209F843
:1008B2001209DE7FCC1209F87FBE1209F81209A7CD
:1008C2008F151209A7EFFEE515FFFDAC06EC12022B
:0B08D2002CE4FBFA7980784112010C45
:0108DD0022F8
:060A7A00C2A58F80D2A787
:080A80007F027EEFDEFEDFFCC9
:010A8800224B
:0A0AA200C2A6120A7AC2A7020A8057
:10094E00CFCDCFCECCCE1203257C007D0A1203254F
:04095E00ED2430FF55
:0A096200D2A6120A7AC2A7020A8088
:100A2900AE07BE0104ED148006BE0209ED243F4461
:060A390080FF120AA22258
:100A54007F38120AA27F0C120AA27F06120AA27F12
:040A640001020AA2DF
:0A0AAC00AC03120A29AF040209622C
:06092B008B158A168917E6
:10093100120A29E4FDAB15AA16A9178D8275830049
:0C0941001202E6FF60061209620D80E958
:01094D002287
:0C084C007F0AEA24FFFDE434FFFC7E007C
:080858008E1C8F1D8C1E8D1FEC
:100860007F017E00E4FBEBC3951FE51E6480F874F6
:0E0870008098500AAC1CAD1D1203130B80E8DB
:01087E002257
:04098A008A178B1825
:10098E00120A29AA19EAD39400400D12084CAC178A
:08099E00AD1812094E1A80ED9C
:0109A600222E
:1007A100120A29C3EA64809480400B7F2B120962EC
:1007B1008A1A8B1B800E7F2D120962C3E49BF51BE5
:1007C100E49AF51AAA19EAD39400400D12084CAC28
:0907D1001AAD1B12094E1A80ED4D
:0107DA0022FC
:0407DB008A228B23C0
:1007DF00120A29AA24EAD3940040297F1012084E46
:1007EF00AC22AD23CFCDCFCECCCE120325EF540FFD
:1007FF00FEC3940AEE5004243080022437FF1209FE
:04080F00621A80D118
:0108130022C2
:040814008A278B287C
:10081800120A29AA29EAD394004028EA24FFFDE411
:1008280034FFFC7F027E00120858AC27AD28CFCDDC
:10083800CFCECCCE120325EF54012430FF1209622B
:030848001A80D241
:01084B00228A
:1009DE00D2B7C2B77FF7DFFED2B77F20DFFEA2B756
:0909EE00E433FE7FF7DFFEAF06E3
:0109F70022DD
:100A6800C2B77E04DEFEEF24FF92B77E18DEFED208
:010A7800B7C6
:010A7900225A
:100A1100C2B77F02DFFED2B77F02DFFEA2B7E433A7
:070A2100FE7F18DFFEAF06A7
:010A280022AB
:0209F800AD0749
:1009FA00E4FC7401A804088002C333D8FC5DFF122A
:060A0A000A680CBC08ECB8
:010A100022C3
:1009A700E4FDFC120A11EF600D7401A8040880022F
:0C09B700C333D8FC42050CBC08E9AF05B6
:0109C3002211
:10074000E4F51520B1137F14FE120A3F30B1FD7F8E
:10075000147E00120A3F75150120B0147F147E002C
:10076000120A3F30B0FD7F147E00120A3F75150259
:1007700020B2147F147E00120A3F30B2FD7F147E37
:1007800000120A3F75150320B3147F147E00120A6D
:100790003F30B3FD7F147E00120A3F751504AF157C
:0107A0002236
:090AC900D2A0D2A1C2A0C2A12258
:070AD200C2A0D2A1D2A022B4
:0208DE00AD0764
:1008E000E4FB74807E00A803088006CEA2E713CE46
:1008F00013D8F8FFEDF582EF558224FF92A0D2A124
:06090000C2A10BBB08DCE4
:0109060022CE
:10096C00E4FFD2A0FED2A130A00D7480A8060880AE
:0D097C0002C313D8FC4207C2A10EBE08E85A
:01098900224B
:0A0AB600EF24FF92A0D2A1C2A122FA
:0B0A9600D2A0D2A1A2A0E433FFC2A1B5
:010AA1002232
:100907008F158C168D17120AC97FA01208DE120ADE
:1009170096AF151208DE120A96AF171208DE120AF2
:0409270096020AD258
:02087F008F15D3
:10088100E4F516120AC97FA01208DE120A96AF1506
:100891001208DE120A96120AC97FA11208DE120A94
:1008A1009612096C8F167F01120AB6120AD2AF1680
:0108B1002224
:10000300EC4D6011E8497017ED33EC3304600DE4F7
:10001300FCFFFEFD22E933E8330470F80202D1123B
:10002300029C58046009E4CC24815006285009023C
:1000330002DB2840030202D8C0E0EB4A7044B980D7
:1000430006D0E0FB0202C7EF4E701CBD8008EBFF39
:10005300EAFEE9FD80EBE98DF0A4FEE5F00200EC99
:10006300E9CDF9EAFEEBFFEF89F0A4FCE5F0CE89D8
:10007300F0A42EFFE435F0CD89F0A42DFEE435F095
:100083008067EF4E7005BD80D780C3EF8BF0A4ACC3
:10009300F0EE8BF0A42CFCE435F0F8EF8AF0A42CFE
:1000A300E5F038FCE433CB8DF0A42CFCE5F03BF811
:1000B300EE8AF0A42CFCE5F038F8E433CF89F0A401
:1000C3002CFCE5F038CF3400CE89F0A42FFFE5F007
:1000D3003EFEE433C98DF0A42EFEE5F039CD8AF05F
:1000E300A42FFFE5F03EFEE43DFD33D0E0FB5007D7
:1000F3000BBB000F0202DBEC2CFCEF33FFEE33FEF5
:06010300ED33FD0202B322
:100109000202DBEC5D046005E8590470030202D1C8
:1001190012029C580460F6EC4860F2EC7004FDFE93
:10012900FF22C860DB2481C85009C39860025006C9
:100139000202D89850CAF582E9294B4A7005AB8268
:100149000202C775F0007C1A7880C3EF9BEE9AED26
:1001590099400DC3EF9BFFEE9AFEED99FDE842F041
:10016900DC23ACF0D0E0FFD0E0FED0E0FDAB822094
:10017900E7101BEB60BAEC2CFCEF33FFEE33FEED1E
:1001890033FD0202B3E803F830E705C0F075F0006B
:10019900EF2FFFEE33FEED33FD40B830E7C280AA02
:1001A90074F8CC6480CCC86480C8F582046043C309
:1001B900EB9FF5F0EA9E42F0E99D42F0E89C45F09C
:1001C90060305018E5825FFFE582F42B5582FB50C1
:1001D900210ABA001D09B90019088016E5825BFBDE
:1001E900E582F42F5582FF50090EBE00050DBD00B2
:1001F900010CC3EB9FF5F0EA9E42F0E99D42F0E85D
:0D0209009C45F06007CC4820E701B3EC22D3
:10021600ED33EC33600A047003BD8004ECB2E7FCF6
:0102260022B5
:1002270075F020800E75F010800575F0087D007E52
:10023700007F003392D530D503120448EC334010C9
:10024700EF33FFEE33FEED33FDEC33FCD5F0ED225B
:0E025700E5F0247EA2D513CC92E7CDCEFF2297
:10026500EDD2E7CD33EC3392D524814006E4FFFE91
:10027500FDFC22FCE4CFCECDCC24E0501174FF80F0
:10028500EDC3CC13CCCD13CDCE13CECF13CF04708D
:07029500F030D5DE02044841
:10029C00E9D2E7C933E833F892D5EDD2E7CD33ECA8
:0702AC0033FC5002B2D52221
:1002B300EC30E7100FBF000C0EBE00080DBD0004AC
:1002C3000BEB6014A2D5EB13FCED92E7FD2274FF58
:1002D300FCFDFEFF22E480F8A2D574FF13FC7D80B1
:0302E300E480EFC5
:030000000206B441
:0C06B400787FE4F6D8FD7581290206FB72
:1002E600BB010CE58229F582E5833AF583E02250CD
:1002F60006E92582F8E622BBFE06E92582F8E22217
:0D030600E58229F582E5833AF583E4932230
:10031300EF8DF0A4A8F0CF8CF0A428CE8DF0A42EFE
:02032300FE22B8
:10032500BC000BBE0029EF8DF084FFADF022E4CCBC
:10033500F875F008EF2FFFEE33FEEC33FCEE9DEC85
:10034500984005FCEE9DFE0FD5F0E9E4CEFD22EDCB
:10035500F8F5F0EE8420D21CFEADF075F008EF2F15
:10036500FFED33FD4007985006D5F0F222C398FD06
:050375000FD5F0EA22A3
:10037A0075F008758200EF2FFFEE33FECD33CDCC3A
:10038A0033CCC58233C5829BED9AEC99E5829840BD
:10039A000CF582EE9BFEED9AFDEC99FC0FD5F0D69A
:1003AA00E4CEFBE4CDFAE4CCF9A88222B800C1B9C4
:1003BA000059BA002DEC8BF084CFCECDFCE5F0CB02
:1003CA00F97818EF2FFFEE33FEED33FDEC33FCEB3B
:1003DA0033FB10D703994004EB99FB0FD8E5E4F9F6
:1003EA00FA227818EF2FFFEE33FEED33FDEC33FCE3
:1003FA00C933C910D7059BE99A4007EC9BFCE99AD7
:10040A00F90FD8E0E4C9FAE4CCFB2275F010EF2F1B
:10041A00FFEE33FEED33FDCC33CCC833C810D7071B
:10042A009BEC9AE899400AED9BFDEC9AFCE899F856
:0E043A000FD5F0DAE4CDFBE4CCFAE4C8F922E9
:0E044800C3E49FFFE49EFEE49DFDE49CFC22C5
:1006C000020456E493A3F8E493A34003F68001F2F6
:1006D00008DFF48029E493A3F85407240CC8C3333B
:1006E000C4540F4420C8834004F456800146F6DF0A
:1006F000E4800B0102040810204080900AC0E47ED0
:10070000019360BCA3FF543F30E509541FFEE493FE
:10071000A360010ECF54C025E060A840B8E493A3C5
:10072000FAE493A3F8E493A3C8C582C8CAC583CAF0
:10073000F0A3C8C582C8CAC583CADFE9DEE780BEA8
:010AC800002D
:00000001FF
