:100228004669676874210057656C636F6D65207453
:090238006F204368696E6121002A
:100097001202567BFF7A0279287D037F011201CA7B
:1000A700750C047B7B7A007D017F0212020B750CB5
:1000B700037B857AFF7D067F021200EC750C027BBD
:1000C700B77A007D0C7F021201267BFF7A02792F17
:1000D7007D107F011201CA7F181202957F2C7E01C5
:0500E70012024180F24D
:06027A00C2A58F80D2A78F
:080280007F027EEFDEFEDFFCD1
:010288002253
:0A029500C2A612027AC2A70202807C
:1001ED00CFCDCFCECCCE1200427C007D0A12004284
:0401FD00ED2430FFBE
:0A020100D2A612027AC2A702028000
:100256007F381202957F0C1202957F061202957F57
:0402660001020295FA
:10026A00EDBF0103148002243F4480FF120295224D
:0A029F00AC0312026AAF0402020170
:0601CA008B088A09890A76
:1001D00012026AE4FDAB08AA09A90A8D82758300A0
:0C01E000120003FF60061202010D80E90E
:0101EC0022F0
:0C0197007F0AEA24FFFDE434FFFC7E0038
:0801A3008E0F8F108C118D12DC
:1001AB007F017E00E4FBEBC39512E5116480F874CC
:0E01BB008098500AAC0FAD101200300B80E897
:0101C9002213
:04020B008A0A8B0BC5
:10020F0012026AAA0CEAD39400400D120197AC0AAD
:08021F00AD0B1201ED1A80ED98
:0102270022B4
:1000EC0012026AC3EA64809480400B7F2B120201D7
:1000FC008A0D8B0E800E7F2D120201C3E49BF50E30
:10010C00E49AF50DAA0CEAD39400400D120197ACB9
:09011C000DAD0E1201ED1A80ED8B
:0101250022B7
:040126008A0A8B0BAB
:10012A0012026AAA0CEAD3940040297F101201999C
:10013A00AC0AAD0BCFCDCFCECCCE120042EF540FCE
:10014A00FEC3940AEE5004243080022437FF1202C0
:04015A00011A80D135
:01015E00227E
:04015F008A158B165C
:1001630012026AAA17EAD394004028EA24FFFDE4A6
:1001730034FFFC7F027E001201A3AC15AD16CFCD78
:10018300CFCECCCE120042EF54012430FF12020135
:030193001A80D2FD
:010196002246
:10024100EF1FAC0670011E4C600A7D027CEFDCFEE4
:04025100DDFC80EC64
:010255002286
:0300000002028970
:0C028900787FE4F6D8FD7581170200971D
:10000300BB010CE58229F582E5833AF583E02250B2
:1000130006E92582F8E622BBFE06E92582F8E222FC
:0D002300E58229F582E5833AF583E4932216
:10003000EF8DF0A4A8F0CF8CF0A428CE8DF0A42EE4
:02004000FE229E
:10004200BC000BBE0029EF8DF084FFADF022E4CCA2
:10005200F875F008EF2FFFEE33FEEC33FCEE9DEC6B
:10006200984005FCEE9DFE0FD5F0E9E4CEFD22EDB1
:10007200F8F5F0EE8420D21CFEADF075F008EF2FFB
:10008200FFED33FD4007985006D5F0F222C398FDEC
:050092000FD5F0EA2289
:00000001FF
