:0D07360054656D70657261747572653A00EE
:100456001207437FE87E031206EC1207017BFF7A40
:100466000779367D017F011206101207431205E453
:100476008F258E248D238C22E4FFFEFDFCAB25AA5E
:1004860024A923A8221201A9501E7B2D7D017F02DB
:10049600120766AF25AE24AD23AC221202168F25B5
:1004A6008E248D238C2280097B2B7D017F021207EF
:1004B60066AF25AE24AD23AC22120265AB07AA06B1
:1004C600750C037D027F021206517B2E7D057F028D
:1004D6001207667F007E407D1C7C46AB25AA24A9B8
:1004E60023A822120003120265E47B107A27F9F88A
:1004F6001203B6750C047D067F02120651020470C3
:1006EC00EF1FAC0670011E4C600A7D027CEFDCFE35
:0406FC00DDFC80ECB5
:0107000022D6
:06072700C2A58F80D2A7DD
:08072D007F027EEFDEFEDFFC1F
:0107350022A1
:0A075C00C2A6120727C2A702072D4C
:10063300CFCDCFCECCCE1203257C007D0A1203256D
:04064300ED2430FF73
:0A064700D2A6120727C2A702072D52
:1006D600AE07BE0104ED148006BE0209ED243F44B8
:0606E60080FF12075C22F8
:100701007F3812075C7F0C12075C7F0612075C7F43
:040711000102075C7E
:0A076600AC031206D6AF04020647EA
:060610008B088A09890A2B
:100616001206D6E4FDAB08AA09A90A8D82758300E5
:0C0626001202E6FF60061206470D80E994
:0106320022A5
:0C05B1007F0AEA24FFFDE434FFFC7E001A
:0805BD008E0D8F0E8C0F8D10C6
:1005C5007F017E00E4FBEBC39510E50F6480F874B2
:0E05D5008098500AAC0DAD0E1203130B80E897
:0105E30022F5
:040651008A0A8B0B7B
:100655001206D6AA0CEAD39400400D1205B1AC0AD5
:08066500AD0B1206331A80ED03
:01066D00226A
:100506001206D6C3EA64809480400B7F2B120647FE
:100516008A168B17800E7F2D120647C3E49BF517AC
:10052600E49AF516AA15EAD39400400D1205B1AC6B
:0905360016AD171206331A80ED10
:01053F002299
:040540008A1A8B1B6D
:100544001206D6AA1CEAD3940040297F101205B3E0
:10055400AC1AAD1BCFCDCFCECCCE120325EF540FAA
:10056400FEC3940AEE5004243080022437FF12069E
:04057400471A80D1D1
:010578002260
:040579008A1F8B202A
:10057D001206D6AA21EAD394004028EA24FFFDE40E
:10058D0034FFFC7F027E001205BDAC1FAD20CFCD28
:10059D00CFCECCCE120325EF54012430FF120647E7
:0305AD001A80D2DF
:0105B0002228
:0D07430012068B7FCC1206A57F440206A58E
:1005E40012068B7FCC1206A57FBE1206A512066EDC
:1005F4008F0812066EEFFEE508FFFDAC06EC120252
:0B0604002CE4FBFA7980784112010C15
:01060F0022C8
:10068B00D2B7C2B77FF7DFFED2B77F20DFFEA2B7AC
:09069B00E433FE7FF7DFFEAF0639
:0106A4002233
:10071500C2B77E04DEFEEF24FF92B77E18DEFED25E
:01072500B71C
:0107260022B0
:1006BE00C2B77F02DFFED2B77F02DFFEA2B7E433FE
:0706CE00FE7F18DFFEAF06FE
:0106D5002202
:0206A500AD079F
:1006A700E4FC7401A804088002C333D8FC5DFF1280
:0606B70007150CBC08EC65
:0106BD00221A
:10066E00E4FDFC1206BEEF600D7401A804088002C2
:0C067E00C333D8FC42050CBC08E9AF05F2
:01068A00224D
:10000300EC4D6011E8497017ED33EC3304600DE4F7
:10001300FCFFFEFD22E933E8330470F80202D1123B
:10002300029C58046009E4CC24815006285009023C
:1000330002DB2840030202D8C0E0EB4A7044B980D7
:1000430006D0E0FB0202C7EF4E701CBD8008EBFF39
:10005300EAFEE9FD80EBE98DF0A4FEE5F00200EC99
:10006300E9CDF9EAFEEBFFEF89F0A4FCE5F0CE89D8
:10007300F0A42EFFE435F0CD89F0A42DFEE435F095
:100083008067EF4E7005BD80D780C3EF8BF0A4ACC3
:10009300F0EE8BF0A42CFCE435F0F8EF8AF0A42CFE
:1000A300E5F038FCE433CB8DF0A42CFCE5F03BF811
:1000B300EE8AF0A42CFCE5F038F8E433CF89F0A401
:1000C3002CFCE5F038CF3400CE89F0A42FFFE5F007
:1000D3003EFEE433C98DF0A42EFEE5F039CD8AF05F
:1000E300A42FFFE5F03EFEE43DFD33D0E0FB5007D7
:1000F3000BBB000F0202DBEC2CFCEF33FFEE33FEF5
:06010300ED33FD0202B322
:100109000202DBEC5D046005E8590470030202D1C8
:1001190012029C580460F6EC4860F2EC7004FDFE93
:10012900FF22C860DB2481C85009C39860025006C9
:100139000202D89850CAF582E9294B4A7005AB8268
:100149000202C775F0007C1A7880C3EF9BEE9AED26
:1001590099400DC3EF9BFFEE9AFEED99FDE842F041
:10016900DC23ACF0D0E0FFD0E0FED0E0FDAB822094
:10017900E7101BEB60BAEC2CFCEF33FFEE33FEED1E
:1001890033FD0202B3E803F830E705C0F075F0006B
:10019900EF2FFFEE33FEED33FD40B830E7C280AA02
:1001A90074F8CC6480CCC86480C8F582046043C309
:1001B900EB9FF5F0EA9E42F0E99D42F0E89C45F09C
:1001C90060305018E5825FFFE582F42B5582FB50C1
:1001D900210ABA001D09B90019088016E5825BFBDE
:1001E900E582F42F5582FF50090EBE00050DBD00B2
:1001F900010CC3EB9FF5F0EA9E42F0E99D42F0E85D
:0D0209009C45F06007CC4820E701B3EC22D3
:10021600ED33EC33600A047003BD8004ECB2E7FCF6
:0102260022B5
:1002270075F020800E75F010800575F0087D007E52
:10023700007F003392D530D503120448EC334010C9
:10024700EF33FFEE33FEED33FDEC33FCD5F0ED225B
:0E025700E5F0247EA2D513CC92E7CDCEFF2297
:10026500EDD2E7CD33EC3392D524814006E4FFFE91
:10027500FDFC22FCE4CFCECDCC24E0501174FF80F0
:10028500EDC3CC13CCCD13CDCE13CECF13CF04708D
:07029500F030D5DE02044841
:10029C00E9D2E7C933E833F892D5EDD2E7CD33ECA8
:0702AC0033FC5002B2D52221
:1002B300EC30E7100FBF000C0EBE00080DBD0004AC
:1002C3000BEB6014A2D5EB13FCED92E7FD2274FF58
:1002D300FCFDFEFF22E480F8A2D574FF13FC7D80B1
:0302E300E480EFC5
:03000000020750A4
:0C075000787FE4F6D8FD75812502045680
:1002E600BB010CE58229F582E5833AF583E02250CD
:1002F60006E92582F8E622BBFE06E92582F8E22217
:0D030600E58229F582E5833AF583E4932230
:10031300EF8DF0A4A8F0CF8CF0A428CE8DF0A42EFE
:02032300FE22B8
:10032500BC000BBE0029EF8DF084FFADF022E4CCBC
:10033500F875F008EF2FFFEE33FEEC33FCEE9DEC85
:10034500984005FCEE9DFE0FD5F0E9E4CEFD22EDCB
:10035500F8F5F0EE8420D21CFEADF075F008EF2F15
:10036500FFED33FD4007985006D5F0F222C398FD06
:050375000FD5F0EA22A3
:10037A0075F008758200EF2FFFEE33FECD33CDCC3A
:10038A0033CCC58233C5829BED9AEC99E5829840BD
:10039A000CF582EE9BFEED9AFDEC99FC0FD5F0D69A
:1003AA00E4CEFBE4CDFAE4CCF9A88222B800C1B9C4
:1003BA000059BA002DEC8BF084CFCECDFCE5F0CB02
:1003CA00F97818EF2FFFEE33FEED33FDEC33FCEB3B
:1003DA0033FB10D703994004EB99FB0FD8E5E4F9F6
:1003EA00FA227818EF2FFFEE33FEED33FDEC33FCE3
:1003FA00C933C910D7059BE99A4007EC9BFCE99AD7
:10040A00F90FD8E0E4C9FAE4CCFB2275F010EF2F1B
:10041A00FFEE33FEED33FDCC33CCC833C810D7071B
:10042A009BEC9AE899400AED9BFDEC9AFCE899F856
:0E043A000FD5F0DAE4CDFBE4CCFAE4C8F922E9
:0E044800C3E49FFFE49EFEE49DFDE49CFC22C5
:00000001FF
