:10015E001201C61200FD8F19E51964017023051BEB
:10016E00531B03E51B7002F518E51BB4010375184C
:10017E0032E51BB4020375184BE51BB40303751867
:0D018E0064E51BFD7C007F0112009A80C615
:03000B0002019B54
:10019B00C0E0C0F0C0D0758A9C758CFF051AE51ABB
:1001AB0075F0648485F01AE51AC395185004D29043
:0B01BB008002C290D0D0D0F0D0E03223
:1001DD00EF1FAC0670011E4C600A7D027CEFDCFE49
:0401ED00DDFC80ECC9
:0101F10022EB
:1000FD00E4F51C20B1137F14FE1201DD30B1FD7F3C
:10010D00147E001201DD751C0120B0147F147E00D9
:10011D001201DD30B0FD7F147E001201DD751C0271
:10012D0020B2147F147E001201DD30B2FD7F147EEB
:10013D00001201DD751C0320B3147F147E00120123
:10014D00DD30B3FD7F147E001201DD751C04AF1C84
:01015D00227F
:1001C6005389F0438901758A9C758CFFC28DD28C48
:0701D600D2A9D2AFC2B92289
:1001F20010083F065B4F666D7D077F6F777C395E27
:02020200797110
:10009A00EF14B4080050549000AF75F003A4C58360
:1000AA0025F0C583730200C70200CB0200CF02000D
:1000BA00D30200D70200DF0200E70200EFD2A480D9
:1000CA000ED2A48012D2A48016D2A4801AC2A4D2BC
:1000DA00A3D2A28016C2A4D2A3C2A2800EC2A4C274
:1000EA00A3D2A28006C2A4C2A3C2A274082DF8E6B3
:0300FA00F580226C
:0300000002000EED
:0C000E00787FE4F6D8FD75811C020055D7
:10001A0002015EE493A3F8E493A34003F68001F29D
:10002A0008DFF48029E493A3F85407240CC8C333E7
:10003A00C4540F4420C8834004F456800146F6DFB6
:10004A00E4800B01020408102040809001F2E47E53
:10005A00019360BCA3FF543F30E509541FFEE493AB
:10006A00A360010ECF54C025E060A840B8E493A372
:10007A00FAE493A3F8E493A3C8C582C8CAC583CA9D
:10008A00F0A3C8C582C8CAC583CADFE9DEE780BE55
:0102040000F9
:00000001FF
