:1003DE00EF1FAC0670011E4C600A7D027CEFDCFE46
:0403EE00DDFC80ECC6
:0103F20022E8
:10035500090900101010101010101012123F065B42
:100365004F666D7D077F6F777C395E79710040013F
:0203750008017D
:09040900AE0574092FF8A60622C5
:10020F00E4F580EF14B40800505490022775F00302
:10021F00A4C58325F0C5837302023F020243020285
:10022F004702024B02024F02025702025F020267AD
:10023F00D2A4800ED2A48012D2A48016D2A4801A87
:10024F00C2A4D2A3D2A28016C2A4D2A3C2A2800EED
:10025F00C2A4C2A3D2A28006C2A4C2A3C2A2741215
:06026F002DF8E6F58022E7
:1003960074092508F8E6FD7C00AF0812020F05086F
:0A03A600E508C3940940037508013F
:0103B000222A
:1003B1005389F0438901758A18758CFCC28DD28CE2
:0703C100D2A9D2AFC2B9229C
:05041B00E4AF31F531F2
:0104200022B9
:1003C800E4FF20B1010F20B0027F0220B2027F03B8
:0503D80020B3027F04C8
:0103DD0022FD
:10027500852F301203C88F2FE530B40107E52F70A5
:1002850003753101E530B40207E52F7003753102BE
:10029500E530B40307E52F7003753103E530B40489
:0802A50007E52F700375310419
:0102AD00222E
:10000E001203B112041B8F2EE52E606EB4010CE5A7
:10001E002C70047F0180027F008F2CE52EB4020726
:10002E00E4F52BF52AF52DE52E64037033E52BFD53
:10003E007C00E4FF1203317F057E001203DEE52A09
:10004E00FD7C007F011203317F057E001203DEE589
:10005E002DFD7C007F021203317F057E001203DE30
:10006E00E52EB40415E4FF1202AE8F2B7F011202AF
:10007E00AE8F2A7F021202AE8F2DE52B75F00A8409
:10008E00FD7C007F01120409E52B75F00A84E5F072
:10009E00FD7C007F021204097D117C007F03120497
:1000AE0009E52A75F00A84FD7C007F04120409E537
:1000BE002A75F00A84E5F0FD7C007F051204097DA7
:1000CE00117C007F06120409E52D75F00A84FD7C73
:1000DE00007F07120409E52D75F00A84E5F0FD7C1A
:0900EE00007F0812040902001150
:10030A00E52C6022052DE52DC394644019E4F52DF2
:10031A00052AE52A943C400EE4F52A052BE52B94A0
:07032A003C4003E4F52B2227
:03000B000200F7F9
:1000F700C0E0C0F0C083C082C0D075D000C000C0CF
:0D01070001C002C003C004C005C006C0074F
:10011400758A18758CFC0525E52570020524C394A1
:1001240064E52494004009752400752500120275C5
:100134000527E52770020526C39402E526940040AE
:10014400097526007527001203960529E529700212
:100154000528C3940AE528940040097528007529E8
:040164000012030A78
:10016800D007D006D005D004D003D002D001D000EB
:0B017800D0D0D082D083D0F0D0E03295
:09041200D2A0D2A1C2A0C2A12215
:07000300C2A0D2A1D2A0228D
:0202E100AD0767
:1002E300E4FB74807E00A803088006CEA2E713CE49
:1002F30013D8F8FFEDF582EF558224FF92A0D2A127
:06030300C2A10BBB08DCE7
:0103090022D1
:10037800E4FFD2A0FED2A130A00D7480A8060880A8
:0D03880002C313D8FC4207C2A10EBE08E854
:010395002245
:0A03FF00EF24FF92A0D2A1C2A122B8
:0B03F300D2A0D2A1A2A0E433FFC2A15F
:0103FE0022DC
:100331008F328C338D341204127FA01202E112032A
:10034100F3AF321202E11203F3AF341202E11203EE
:04035100F3020003B0
:0202AE008F328D
:1002B000E4F5331204127FA01202E11203F3AF320D
:1002C0001202E11203F31204127FA11202E11203DF
:1002D000F31203788F337F011203FF120003AF3351
:0102E00022FB
:0300000002018377
:0C018300787FE4F6D8FD7581340201CAD3
:10018F0002000EE493A3F8E493A34003F68001F278
:10019F0008DFF48029E493A3F85407240CC8C33371
:1001AF00C4540F4420C8834004F456800146F6DF40
:1001BF00E4800B0102040810204080900355E47E78
:1001CF00019360BCA3FF543F30E509541FFEE49335
:1001DF00A360010ECF54C025E060A840B8E493A3FC
:1001EF00FAE493A3F8E493A3C8C582C8CAC583CA27
:1001FF00F0A3C8C582C8CAC583CADFE9DEE780BEDF
:010377000085
:00000001FF
